{
  "contractName": "VacationExpense",
  "abi": [
    {
      "inputs": [
        {
          "internalType": "uint256",
          "name": "_amount",
          "type": "uint256"
        }
      ],
      "name": "setAmount",
      "outputs": [],
      "stateMutability": "nonpayable",
      "type": "function"
    },
    {
      "inputs": [],
      "name": "getAmount",
      "outputs": [
        {
          "internalType": "uint256",
          "name": "",
          "type": "uint256"
        }
      ],
      "stateMutability": "view",
      "type": "function"
    },
    {
      "inputs": [
        {
          "internalType": "uint256",
          "name": "_amount",
          "type": "uint256"
        }
      ],
      "name": "spendOnTravel",
      "outputs": [],
      "stateMutability": "nonpayable",
      "type": "function"
    },
    {
      "inputs": [
        {
          "internalType": "uint256",
          "name": "_amount",
          "type": "uint256"
        }
      ],
      "name": "spendOnFood",
      "outputs": [],
      "stateMutability": "nonpayable",
      "type": "function"
    },
    {
      "inputs": [
        {
          "internalType": "uint256",
          "name": "_amount",
          "type": "uint256"
        }
      ],
      "name": "spendOnStay",
      "outputs": [],
      "stateMutability": "nonpayable",
      "type": "function"
    }
  ],
  "bytecode": "0x608060405234801561001057600080fd5b506103c5806100206000396000f3fe608060405234801561001057600080fd5b50600436106100575760003560e01c8063271f88b41461005c57806375d39f2814610078578063c57c07af14610094578063d321fe29146100b0578063d4f20acb146100ce575b600080fd5b61007660048036038101906100719190610258565b6100ea565b005b610092600480360381019061008d9190610258565b6100f4565b005b6100ae60048036038101906100a99190610258565b610154565b005b6100b86101b4565b6040516100c59190610294565b60405180910390f35b6100e860048036038101906100e39190610258565b6101bd565b005b8060008190555050565b806000541015610139576040517f08c379a00000000000000000000000000000000000000000000000000000000081526004016101309061030c565b60405180910390fd5b8060008082825461014a919061035b565b9250508190555050565b806000541015610199576040517f08c379a00000000000000000000000000000000000000000000000000000000081526004016101909061030c565b60405180910390fd5b806000808282546101aa919061035b565b9250508190555050565b60008054905090565b806000541015610202576040517f08c379a00000000000000000000000000000000000000000000000000000000081526004016101f99061030c565b60405180910390fd5b80600080828254610213919061035b565b9250508190555050565b600080fd5b6000819050919050565b61023581610222565b811461024057600080fd5b50565b6000813590506102528161022c565b92915050565b60006020828403121561026e5761026d61021d565b5b600061027c84828501610243565b91505092915050565b61028e81610222565b82525050565b60006020820190506102a96000830184610285565b92915050565b600082825260208201905092915050565b7f4e6f7420656e6f75676820616d6f756e742e0000000000000000000000000000600082015250565b60006102f66012836102af565b9150610301826102c0565b602082019050919050565b60006020820190508181036000830152610325816102e9565b9050919050565b7f4e487b7100000000000000000000000000000000000000000000000000000000600052601160045260246000fd5b600061036682610222565b915061037183610222565b92508282039050818111156103895761038861032c565b5b9291505056fea264697066735822122067b3e3b364a59718dc00facc0adda5ac02248d4b2890adea1f5dc543e92de01364736f6c63430008110033",
  "immutableReferences": {},
  "source": "// Rutvik Choudhari - 2019130010 - BE Comps\r\n\r\n// SPDX-License-Identifier: MIT\r\npragma solidity >= 0.7.0;\r\n\r\ncontract VacationExpense {\r\n    uint amount;\r\n\r\n    function setAmount(uint _amount) public {\r\n        amount = _amount;\r\n    }\r\n\r\n    function getAmount() public view returns (uint) {\r\n        return amount;\r\n    }\r\n\r\n    function spendOnTravel(uint _amount) public {\r\n        require(amount >= _amount, \"Not enough amount.\");\r\n        amount -= _amount;\r\n    }\r\n\r\n    function spendOnFood(uint _amount) public {\r\n        require(amount >= _amount, \"Not enough amount.\");\r\n        amount -= _amount;\r\n    }\r\n\r\n    function spendOnStay(uint _amount) public {\r\n        require(amount >= _amount, \"Not enough amount.\");\r\n        amount -= _amount;\r\n    }\r\n}",
  "sourcePath": "C:\\Users\\DELL\\TruffleProjects\\first\\contracts\\VacationExpense.sol",
  "compiler": {
    "name": "solc",
    "version": "0.8.17+commit.8df45f5f.Emscripten.clang"
  },
  "schemaVersion": "3.4.10",
  "updatedAt": "2022-11-01T09:47:56.636Z",
  "devdoc": {
    "kind": "dev",
    "methods": {},
    "version": 1
  },
  "userdoc": {
    "kind": "user",
    "methods": {},
    "version": 1
  }
}